:100000000C9457000C9474000C9474000C947400BD
:100010000C9474000C9474000C9474000C94740090
:100020000C9474000C9474000C9474000C94740080
:100030000C9474000C9474000C9474000C94740070
:100040000C94EB000C9474000C9474000C947400E9
:100050000C9474000C9474000C9474000C94740050
:100060000C9474000C94740000000008000201005D
:100070000003040700000000000000000102040863
:100080001020408001020408102001020408102002
:10009000040404040404040402020202020203032E
:1000A0000303030300000000250028002B00112497
:1000B0001FBECFEFD8E0DEBFCDBF11E0A0E0B1E0C2
:1000C000E4EEF2E002C005900D92A030B107D9F73E
:1000D00021E0A0E0B1E001C01D92AB30B207E1F732
:1000E0000E94DC000C9470010C940000089560E004
:1000F000809100010C94A500833081F028F48130B8
:1001000099F08230A1F008958730A9F08830B9F0D5
:100110008430D1F4809180008F7D03C08091800075
:100120008F7780938000089584B58F7702C084B55F
:100130008F7D84BD08958091B0008F7703C080913A
:10014000B0008F7D8093B00008950F931F93CF93DD
:10015000DF931F92CDB7DEB7282F30E0F901E859C1
:10016000FF4F8491F901E458FF4F1491F901E057D2
:10017000FF4F04910023C9F0882321F069830E9476
:100180007C006981E02FF0E0EE0FFF1FEC55FF4F80
:10019000A591B4919FB7F8948C91611103C010950B
:1001A000812301C0812B8C939FBF0F90DF91CF9152
:1001B0001F910F91089508950E9435010E94DB0060
:1001C0000E947600C0E0D0E00E9477002097E1F323
:1001D0000E940000F9CF1F920F920FB60F921124C8
:1001E0002F933F938F939F93AF93BF93809103017E
:1001F00090910401A0910501B09106013091020196
:1002000023E0230F2D3720F40196A11DB11D05C059
:1002100026E8230F0296A11DB11D209302018093B1
:10022000030190930401A0930501B093060180910E
:10023000070190910801A0910901B0910A0101966E
:10024000A11DB11D8093070190930801A09309019E
:10025000B0930A01BF91AF919F918F913F912F91E0
:100260000F900FBE0F901F901895789484B5826000
:1002700084BD84B5816084BD85B5826085BD85B54A
:10028000816085BDEEE6F0E0808181608083E1E8F9
:10029000F0E0108280818260808380818160808331
:1002A000E0E8F0E0808181608083E1EBF0E0808134
:1002B00084608083E0EBF0E0808181608083EAE706
:1002C000F0E080818460808380818260808380818F
:1002D000816080838081806880831092C10008954E
:0402E000F894FFCFC0
:00000001FF
